75600000         2206018370001010000000000000000000004071100000006100110SANTANA PRODUTOS SIDERURGICOS SICOOB                                  12410201910440600000608700000                                                                     
75600011C3001045 2206018370001010000000000000000000004071100000006100110SANTANA PRODUTOS SIDERURGICOS FOLHA DE PAGAMENTO                      R ISRAEL PINHEIRO             03315               GOVERNADOR VALADARES35010131MG                  
7560001300001A0000007560407100000934100012 ROSANIA AVILA DE SOUZA JUSTO  427314296         0219102019BRL000000000000000000000000000001                    19102019000000000000001                                        0100004     00000000000
7560001300002B   100042731429615RUA 57                        00219               SAO GERALDO    GOVERNADOR VALADARES35012370MG191020190000000000000010000000000000000000000000000000000000000000000000000000000000000427314296150000000        
7560001300003A0000007560407100000933370016 MARCIO ANTONIO SIMOES         798245446         0619102019BRL000000000000000000000000000001                    19102019000000000000001                                        0100004     00000000000
7560001300004B   100079824544615RUA F                         00127                              GOVERNADOR VALADARES35024290MG191020190000000000000010000000000000000000000000000000000000000000000000000000000000000798245446150000000        
7560001300005A0000007560407100000934140014 SEBASTIAO ALVES DE AZEVEDO    669654706         0419102019BRL000000000000000000000000000001                    19102019000000000000001                                        0100004     00000000000
7560001300006B   100066965470615AVENIDA VENEZA                00073               GRAA DUQUESA   GOVERNADOR VALADARES35010000MG191020190000000000000010000000000000000000000000000000000000000000000000000000000000000669654706150000000        
7560001300007A0000007560407100000932980015 FABRICIO DOMINGUES DE MELO    067570856         0519102019BRL000000000000000000000000000001                    19102019000000000000001                                        0100004     00000000000
7560001300008B   100006757085674RUA TURMALINA                 00171               SAO RAIMUNDO   GOVERNADOR VALADARES35043600MG191020190000000000000010000000000000000000000000000000000000000000000000000000000000000067570856740000000        
7560001300009A0000007560407100000297368753 LUCIA CAMPOS COSTA            703390236         0319102019BRL000000000000000000000000000001                    19102019000000000000001                                        0100004     00000000000
7560001300010B   100070339023600RUA OMAR MAGALHAES            00268               CENTRO         GOVERNADOR VALADARES35010000MG191020190000000000000010000000000000000000000000000000000000000000000000000000000000000703390236000000000        
7560001300011A0000007560407100000932870015 CLAITON FERREIRA DA SILVA     087116296         0519102019BRL000000000000000000000000000001                    19102019000000000000001                                        0100004     00000000000
7560001300012B   100008711629622AVENIDA VEREADOR JOSE FERNANDE00215               ESPERANCA      GOVERNADOR VALADARES35058040MG191020190000000000000010000000000000000000000000000000000000000000000000000000000000000087116296220000000        
7560001300013A0000007560407100000933460015 RICARDO PENNA MORAES          707644686         0519102019BRL000000000000000000000000000001                    19102019000000000000001                                        0100004     00000000000
7560001300014B   100070764468634RUA CAIO MARTINS              00312               CENTRO         GOVERNADOR VALADARES35010080MG191020190000000000000010000000000000000000000000000000000000000000000000000000000000000707644686340000000        
7560001300015A0000007560407100000297368737 GALENO BRETAS LEITE           467138326         0719102019BRL000000000000000000000000000001                    19102019000000000000001                                        0100004     00000000000
7560001300016B   100046713832687RUA F                         00111               CONJUNTO SIR   GOVERNADOR VALADARES35024290MG191020190000000000000010000000000000000000000000000000000000000000000000000000000000000467138326870000000        
7560001300017A0000007560407100000938460013 ADAILTON PINHEIRO DE SOUZA    798227206         0319102019BRL000000000000000000000000000001                    19102019000000000000001                                        0100004     00000000000
7560001300018B   100079822720610AVENIDA UM                    00160               FRATERNIDADE   GOVERNADOR VALADARES35050690MG191020190000000000000010000000000000000000000000000000000000000000000000000000000000000798227206100000000        
7560001300019A0000007560407100000932770010 ALEXANDRE RIBEIRO DOS SANTOS  049642986         0019102019BRL000000000000000000000000000001                    19102019000000000000001                                        0100004     00000000000
7560001300020B   100004964298680RUA F                         00088               SANTA PAULA    GOVERNADOR VALADARES35001970MG191020190000000000000010000000000000000000000000000000000000000000000000000000000000000049642986800000000        
7560001300021A0000007560407100000932880010 CLEUDINEIA AVELINO FERNANDES P027337586         0019102019BRL000000000000000000000000000001                    19102019000000000000001                                        0100004     00000000000
7560001300022B   100002733758659RUA PAULO NEVES               00073               SAO CRISTOVAO  GOVERNADOR VALADARES35050190MG191020190000000000000010000000000000000000000000000000000000000000000000000000000000000027337586590000000        
7560001300023A0000007560407100000297368770 RAQUEL FERREIRA GUIMARAES DIAS045433546         0019102019BRL000000000000000000000000000001                    19102019000000000000001                                        0100004     00000000000
7560001300024B   100004543354664RUA PROF ANTONIO ALBIM        00008               SITIO DAS FLOREGOVERNADOR VALADARES35024830MG191020190000000000000010000000000000000000000000000000000000000000000000000000000000000045433546640000000        
7560001300025A0000007560407100000933020015 GERONCIO QUEIROGA DE OLIVEIRA 512004736         0519102019BRL000000000000000000000000000001                    19102019000000000000001                                        0100004     00000000000
7560001300026B   100051200473604RUA PAVIUNA                   00254               FLORESTA       GOVERNADOR VALADARES35022610MG191020190000000000000010000000000000000000000000000000000000000000000000000000000000000512004736040000000        
7560001300027A0000007560407100000933320019 TIAGO DA ROCHA FARIA DE MOURA 103764126         0919102019BRL000000000000000000000000000001                    19102019000000000000001                                        0100004     00000000000
7560001300028B   100010376412640RUA TERTULIANO VIEIRA         00091               SANTA HELENA   GOVERNADOR VALADARES35058340MG191020190000000000000010000000000000000000000000000000000000000000000000000000000000000103764126400000000        
7560001300029A0000007560407100000932830013 ANTONIO CARLOS MARINHO PEREIRA042915636         0319102019BRL000000000000000000000000000001                    19102019000000000000001                                        0100004     00000000000
7560001300030B   100004291563671ALAMEDA ENGENHEIRO FELIPE MORE00818               VILA BRETAS    GOVERNADOR VALADARES35051170MG191020190000000000000010000000000000000000000000000000000000000000000000000000000000000042915636710000000        
7560001300031A0000007560407100000933350015 GETULIO TOMAZ DE ANDRADE      729760716         0519102019BRL000000000000000000000000000001                    19102019000000000000001                                        0100004     00000000000
7560001300032B   100072976071691RUA AFONSO PENA               03556               CENTRO         GOVERNADOR VALADARES35010002MG191020190000000000000010000000000000000000000000000000000000000000000000000000000000000729760716910000000        
7560001300033A0000007560407100000933730012 RICARDO MODESTO FERREIRA      041575376         0219102019BRL000000000000000000000000000001                    19102019000000000000001                                        0100004     00000000000
7560001300034B   100004157537670RUA VINTE E UM DE ABRIL       00507               SAO PAULO      GOVERNADOR VALADARES35030760MG191020190000000000000010000000000000000000000000000000000000000000000000000000000000000041575376700000000        
7560001300035A0000007560407100000933060017 GLAUCILENE PINTO              879167116         0719102019BRL000000000000000000000000000001                    19102019000000000000001                                        0100004     00000000000
7560001300036B   100087916711672RUA SANTA TEREZA              00525               VILA ISA       GOVERNADOR VALADARES35043520MG191020190000000000000010000000000000000000000000000000000000000000000000000000000000000879167116720000000        
7560001300037A0000007560407100000932990010 GEDEILSON MOREIRA BARBOSA     034027516         0019102019BRL000000000000000000000000000001                    19102019000000000000001                                        0100004     00000000000
7560001300038B   100003402751623RUA SAO PAULO                 00211               DIST CHONIN BAIGOVERNADOR VALADARES35109000MG191020190000000000000010000000000000000000000000000000000000000000000000000000000000000034027516230000000        
7560001300039A0000007560407100000933100019 ISMAIR AMANCIO CORREIA        008901306         0919102019BRL000000000000000000000000000001                    19102019000000000000001                                        0100004     00000000000
7560001300040B   100000890130698AVENIDA MAGALHAES PINTO       00080               CENTRO         MATHIAS LOBATO      35110000MG191020190000000000000010000000000000000000000000000000000000000000000000000000000000000008901306980000000        
7560001300041A0000007560407100000932930018 DOMINGOS PRIMO MOREIRA        669736006         0819102019BRL000000000000000000000000000001                    19102019000000000000001                                        0100004     00000000000
7560001300042B   100066973600620RUA DETETIVE CIL FARNEY       00163               SANTOS DUMONT IGOVERNADOR VALADARES35022200MG191020190000000000000010000000000000000000000000000000000000000000000000000000000000000669736006200000000        
7560001300043A0000007560407100000932790011 ANA CAROLINE DE OLIVEIRA SILVA080204956         0119102019BRL000000000000000000000000000001                    19102019000000000000001                                        0100004     00000000000
7560001300044B   100008020495673AVENIDA WENCESLAU BRAZ        00337               SANTA RITA     GOVERNADOR VALADARES35040570MG191020190000000000000010000000000000000000000000000000000000000000000000000000000000000080204956730000000        
7560001300045A0000007560407100000930050010 FABRICIO CORREIA DOS SANTOS   067944136         0019102019BRL000000000000000000000000000001                    19102019000000000000001                                        0100004     00000000000
7560001300046B   100006794413604AVENIDA SAO LUCAS             00236               VILA MARIANA   GOVERNADOR VALADARES35012210MG191020190000000000000010000000000000000000000000000000000000000000000000000000000000000067944136040000000        
7560001300047A0000007560407100000933120010 IVAIR GONCALVES DA SILVA      037361716         0019102019BRL000000000000000000000000000001                    19102019000000000000001                                        0100004     00000000000
7560001300048B   100003736171609AVENIDA DO CANAL              00850               ALTINOPOLIS    GOVERNADOR VALADARES35053060MG191020190000000000000010000000000000000000000000000000000000000000000000000000000000000037361716090000000        
7560001300049A0000007560407100000932940013 EDSON CORREIA DA SILVA        782736256         0319102019BRL000000000000000000000000000001                    19102019000000000000001                                        0100004     00000000000
7560001300050B   100078273625672RUA P DOIS                    00007               CONJUNTO SIR   GOVERNADOR VALADARES35024480MG191020190000000000000010000000000000000000000000000000000000000000000000000000000000000782736256720000000        
7560001300051A0000007560407100000933140010 JESSE SODRE DE OLIVEIRA       116593216         0019102019BRL000000000000000000000000000001                    19102019000000000000001                                        0100004     00000000000
7560001300052B   100011659321646RUA BENJAMIN CONSTANT         00683               CENTRO         GOVERNADOR VALADARES35010060MG191020190000000000000010000000000000000000000000000000000000000000000000000000000000000116593216460000000        
7560001300053A0000007560407100000933210019 LILIAN PATRICIA DE OLIVEIRA SI051905456         0919102019BRL000000000000000000000000000001                    19102019000000000000001                                        0100004     00000000000
7560001300054B   100005190545636RUA NOVE                      00371               PLANALTO       GOVERNADOR VALADARES35054100MG191020190000000000000010000000000000000000000000000000000000000000000000000000000000000051905456360000000        
7560001300055A0000007560407100000934060010 WILSON DE OLIVEIRA            782491396         0019102019BRL000000000000000000000000000001                    19102019000000000000001                                        0100004     00000000000
7560001300056B   100078249139615RUA C                         00016               VILA MARIQUITA GOVERNADOR VALADARES35024030MG191020190000000000000010000000000000000000000000000000000000000000000000000000000000000782491396150000000        
7560001300057A0000007560407100000933800010 MICHELLE VIVIANE LEITE CAMPOS 003376386         0019102019BRL000000000000000000000000000001                    19102019000000000000001                                        0100004     00000000000
7560001300058B   100000337638608RUA J                         00119CASA A         JK I           GOVERNADOR VALADARES35045640MG191020190000000000000010000000000000000000000000000000000000000000000000000000000000000003376386080000000        
7560001300059A0000007560407100000934170010 EMERSON PAULO BANDEIRA PIRES  127352068         0019102019BRL000000000000000000000000000001                    19102019000000000000001                                        0100004     00000000000
7560001300060B   100012735206882RUA SANTA TEREZINHA           00130AP 05          CARIJOS        CONSELHEIRO LAFAIETE36400000MG191020190000000000000010000000000000000000000000000000000000000000000000000000000000000127352068820000000        
7560001300061A0000007560407100000935190015 FABRICIO FERREIRA             038547466         0519102019BRL000000000000000000000000000001                    19102019000000000000001                                        0100004     00000000000
7560001300062B   100003854746601RUA SANDALO                   00574               JARDIM IPE     GOVERNADOR VALADARES35043510MG191020190000000000000010000000000000000000000000000000000000000000000000000000000000000038547466010000000        
7560001300063A0000007560407100000932950019 EUZEBIO PEREIRA DE ASSIS      881002607         0919102019BRL000000000000000000000000000001                    19102019000000000000001                                        0100004     00000000000
7560001300064B   100088100260710RUA DOS AIMORES               00136               JARDIM PEROLA  GOVERNADOR VALADARES35051010MG191020190000000000000010000000000000000000000000000000000000000000000000000000000000000881002607100000000        
7560001300065A0000007560407100000933430019 WALDIR DE OLIVEIRA COSTA      759075856         0919102019BRL000000000000000000000000000001                    19102019000000000000001                                        0100004     00000000000
7560001300066B   100075907585668RUA RODRIGUES ALVES           01267A              SANTA RITA     GOVERNADOR VALADARES35040440MG191020190000000000000010000000000000000000000000000000000000000000000000000000000000000759075856680000000        
7560001300067A0000007560407100000933090013 HUMBERTO HENRIQUE LEAL PIRES  047886326         0319102019BRL000000000000000000000000000001                    19102019000000000000001                                        0100004     00000000000
7560001300068B   100004788632683RUA MANACA                    00015               CIDADE NOVA    GOVERNADOR VALADARES35063019MG191020190000000000000010000000000000000000000000000000000000000000000000000000000000000047886326830000000        
7560001300069A0000007560407100000932860010 CHARLES JUNIO ANDRADE         114635756         0019102019BRL000000000000000000000000000001                    19102019000000000000001                                        0100004     00000000000
7560001300070B   100011463575670RUA PEDRO LESSA               00811               LOURDES        GOVERNADOR VALADARES35030440MG191020190000000000000010000000000000000000000000000000000000000000000000000000000000000114635756700000000        
7560001300071A0000007560407100000934050015 WILIAN DE BARROS DUARTE       585522276         0519102019BRL000000000000000000000000000001                    19102019000000000000001                                        0100004     00000000000
7560001300072B   100058552227649AVENIDA WASHINGTON LUIS       02241               SANTA RITA     GOVERNADOR VALADARES35040422MG191020190000000000000010000000000000000000000000000000000000000000000000000000000000000585522276490000000        
7560001300073A0000007560407100000935160019 CARLOS ROBERTO TORRENTES      002544116         0919102019BRL000000000000000000000000000001                    19102019000000000000001                                        0100004     00000000000
7560001300074B   100000254411673RUA SANTA TEREZA              00347               VILA ISA       GOVERNADOR VALADARES35043730MG191020190000000000000010000000000000000000000000000000000000000000000000000000000000000002544116730000000        
7560001300075A0000007560407100000934030014 LUCIANO FERREIRA DOS SANTOS   046500246         0419102019BRL000000000000000000000000000001                    19102019000000000000001                                        0100004     00000000000
7560001300076B   100004650024633RUA MANOEL LOPES              00030               CENTRO         GOVERNADOR VALADARES35138000MG191020190000000000000010000000000000000000000000000000000000000000000000000000000000000046500246330000000        
7560001300077A0000007560407100000933410018 ROGERIO ANTONIO GARCIA DA SILV991468276         0819102019BRL000000000000000000000000000001                    19102019000000000000001                                        0100004     00000000000
7560001300078B   100099146827668RUA DAS ACACIAS               00232A              ALTINOPOLIS    GOVERNADOR VALADARES35053800MG191020190000000000000010000000000000000000000000000000000000000000000000000000000000000991468276680000000        
7560001300079A0000007560407100000934090017 RENATO ROCHA RIBEIRO          991653336         0719102019BRL000000000000000000000000000001                    19102019000000000000001                                        0100004     00000000000
7560001300080B   100099165333691RUA MONTE PASCOAL             00411               VILA DOS MONTESGOVERNADOR VALADARES35041550MG191020190000000000000010000000000000000000000000000000000000000000000000000000000000000991653336910000000        
7560001300081A0000007560407100000932750010 AILTON JUNIOR FERREIRA CRUZ   130741366         0019102019BRL000000000000000000000000000001                    19102019000000000000001                                        0100004     00000000000
7560001300082B   100013074136685RUA PREFEITO LOURIVAL L FERREI00011A              CENTRO         MATHIAS LOBATO      35110000MG191020190000000000000010000000000000000000000000000000000000000000000000000000000000000130741366850000000        
7560001300083A0000007560407100000933150016 JOAO BATISTA RODRIGUES GOMES  100432956         0619102019BRL000000000000000000000000000001                    19102019000000000000001                                        0100004     00000000000
7560001300084B   100010043295630RUA PADRE ANCHIETA            00837               VERA CRUZ      GOVERNADOR VALADARES35041650MG191020190000000000000010000000000000000000000000000000000000000000000000000000000000000100432956300000000        
7560001300085A0000007560407100000933750013 ERLANDO ALMEIDA CABRAL        040804476         0319102019BRL000000000000000000000000000001                    19102019000000000000001                                        0100004     00000000000
7560001300086B   100004080447647RUA UM JK TRES                00158               JK III         GOVERNADOR VALADARES35045610MG191020190000000000000010000000000000000000000000000000000000000000000000000000000000000040804476470000000        
7560001300087A0000007560407100000932720013 BRUNO DOS SANTOS TAVARES      079419586         0319102019BRL000000000000000000000000000001                    19102019000000000000001                                        0100004     00000000000
7560001300088B   100007941958651RUA LAGOA SANTA               00045               TURMALINA      GOVERNADOR VALADARES35052857MG191020190000000000000010000000000000000000000000000000000000000000000000000000000000000079419586510000000        
7560001300089A0000007560407100000933070012 GUTIERRES SOUZA FREITAS       087537536         0219102019BRL000000000000000000000000000001                    19102019000000000000001                                        0100004     00000000000
7560001300090B   100008753753674RUA F                         00566               VALE PASTORIL  GOVERNADOR VALADARES35046103MG191020190000000000000010000000000000000000000000000000000000000000000000000000000000000087537536740000000        
7560001300091A0000007560407100000933030010 GILBERTO CASSIMIRO DA CRUZ    708631565         0019102019BRL000000000000000000000000000001                    19102019000000000000001                                        0100004     00000000000
7560001300092B   100070863156568RUA 31                        00485               SANTOS DUMONT IGOVERNADOR VALADARES35042640MG191020190000000000000010000000000000000000000000000000000000000000000000000000000000000708631565680000000        
7560001300093A0000007560407100000933390017 ROGERIO GUEDES BATISTA        836427496         0719102019BRL000000000000000000000000000001                    19102019000000000000001                                        0100004     00000000000
7560001300094B   100083642749615RUA VALE FORMOSO              01432               KENNEDY        GOVERNADOR VALADARES35051520MG191020190000000000000010000000000000000000000000000000000000000000000000000000000000000836427496150000000        
7560001300095A0000007560407100000933340010 SIMAO LOPES DA SILVA          065729396         0019102019BRL000000000000000000000000000001                    19102019000000000000001                                        0100004     00000000000
7560001300096B   100006572939626RUA EXPEDITO FERREIRA DE CARVA00336               SANTOS DUMONT  GOVERNADOR VALADARES35022192MG191020190000000000000010000000000000000000000000000000000000000000000000000000000000000065729396260000000        
7560001300097A0000007560407100000933000014 GERALDO GOMES DE AMORIM       048511546         0419102019BRL000000000000000000000000000001                    19102019000000000000001                                        0100004     00000000000
7560001300098B   100004851154682RUA DAS ACACIAS               00154               ALTINOPOLIS    GOVERNADOR VALADARES35053800MG191020190000000000000010000000000000000000000000000000000000000000000000000000000000000048511546820000000        
7560001300099A0000007560407100000933790015 ALESSANDRO TEIXEIRA DOS SANTOS055155476         0519102019BRL000000000000000000000000000001                    19102019000000000000001                                        0100004     00000000000
7560001300100B   100005515547624RUA BENTO RODRIGUES           00106               NOVA VILA BRETAGOVERNADOR VALADARES35051050MG191020190000000000000010000000000000000000000000000000000000000000000000000000000000000055155476240000000        
7560001300101A0000007560407100000932820018 ANGELA MARIA SOARES TEIXEIRA  010634516         0819102019BRL000000000000000000000000000001                    19102019000000000000001                                        0100004     00000000000
7560001300102B   100001063451680RUA FINLANDIA                 00085               GRA DUQUESA    GOVERNADOR VALADARES35010000MG191020190000000000000010000000000000000000000000000000000000000000000000000000000000000010634516800000000        
7560001300103A0000007560407100000935200010 RAFAEL CRISTIAN DA SILVA COSTA108980486         0019102019BRL000000000000000000000000000001                    19102019000000000000001                                        0100004     00000000000
7560001300104B   100010898048656RUA ITABIRA                   00227               SANTA HELENA   GOVERNADOR VALADARES35059250MG191020190000000000000010000000000000000000000000000000000000000000000000000000000000000108980486560000000        
7560001300105A0000007560407100000933170017 JOSE EVANGELISTA ANTUNES      643097206         0719102019BRL000000000000000000000000000001                    19102019000000000000001                                        0100004     00000000000
7560001300106B   100064309720625RUA SAMUEL MOURA              00245               SAO PAULO      GOVERNADOR VALADARES35030600MG191020190000000000000010000000000000000000000000000000000000000000000000000000000000000643097206250000000        
7560001300107A0000007560407100000932840019 CARLA LISBOA RIBEIRO          054825436         0919102019BRL000000000000000000000000000001                    19102019000000000000001                                        0100004     00000000000
7560001300108B   100005482543625RUA GERALDO BIANCHINI         00059               JARDIM ATALAIA GOVERNADOR VALADARES35042610MG191020190000000000000010000000000000000000000000000000000000000000000000000000000000000054825436250000000        
7560001300109A0000007560407100000297368745 HENRIQUE NETO COSTA           093149396         0519102019BRL000000000000000000000000000001                    19102019000000000000001                                        0100004     00000000000
7560001300110B   100009314939600RUA MACHADO DE ASSIS          00181               BELE VUR       GOVERNADOR VALADARES35064004MG191020190000000000000010000000000000000000000000000000000000000000000000000000000000000093149396000000000        
7560001300111A0000007560407100000933360010 MARCELA NUNES MARTINS         114560706         0019102019BRL000000000000000000000000000001                    19102019000000000000001                                        0100004     00000000000
7560001300112B   100011456070630RUA AMELIO MELGACO            00530               MARIA EUGENIA  GOVERNADOR VALADARES35058590MG191020190000000000000010000000000000000000000000000000000000000000000000000000000000000114560706300000000        
7560001300113A0000007560407100000934000018 VICTOR HUGO DE MELO CAMPOS    067887526         0819102019BRL000000000000000000000000000001                    19102019000000000000001                                        0100004     00000000000
7560001300114B   100006788752605AVENIDA LISBOA                00477               GRA DUQUESA    GOVERNADOR VALADARES35057450MG191020190000000000000010000000000000000000000000000000000000000000000000000000000000000067887526050000000        
7560001300115A0000007560407100000933420013 RITA DE CASSIA OLIVEIRA CARVAL038968686         0319102019BRL000000000000000000000000000001                    19102019000000000000001                                        0100004     00000000000
7560001300116B   100003896868675RUA ADRUALDO MONTE ALTO       00077AP 204         CON SIR        GOVERNADOR VALADARES35024410MG191020190000000000000010000000000000000000000000000000000000000000000000000000000000000038968686750000000        
7560001300117A0000007560407100000933080018 HERMES GIOVANI SOARES MAGALHAE565328226         0819102019BRL000000000000000000000000000001                    19102019000000000000001                                        0100004     00000000000
7560001300118B   100056532822604RUA T                         00310AP 204 BL 4    NOVA VILA BRETAGOVERNADOR VALADARES35051640MG191020190000000000000010000000000000000000000000000000000000000000000000000000000000000565328226040000000        
7560001300119A0000007560407100000933490011 WEMERSON VIEIRA MIRANDA       079576896         0119102019BRL000000000000000000000000000001                    19102019000000000000001                                        0100004     00000000000
7560001300120B   100007957689663AVENIDA SAO LUCAS             00076               VILA MARIANA   GOVERNADOR VALADARES35012210MG191020190000000000000010000000000000000000000000000000000000000000000000000000000000000079576896630000000        
7560001300121A0000007560407100000934430012 SANDRO BARBOSA DE SOUZA       033374086         0219102019BRL000000000000000000000000000001                    19102019000000000000001                                        0100004     00000000000
7560001300122B   100003337408664RUA CLAUDIO MANOEL            00201               SAO TARCISIO   GOVERNADOR VALADARES35020120MG191020190000000000000010000000000000000000000000000000000000000000000000000000000000000033374086640000000        
7560001300123A0000007560407100000934400016 OSVALDO FERREIRA FILHO        796914126         0619102019BRL000000000000000000000000000001                    19102019000000000000001                                        0100004     00000000000
7560001300124B   100079691412691RUA JOSE DO PATROCINIO        00223CS             SAO PEDRO      GOVERNADOR VALADARES35020280MG191020190000000000000010000000000000000000000000000000000000000000000000000000000000000796914126910000000        
7560001300125A0000007560407100000933380011 RODRIGO DE OLIVEIRA SANTOS    090789046         0119102019BRL000000000000000000000000000001                    19102019000000000000001                                        0100004     00000000000
7560001300126B   100009078904666RUA C                         00197               C HAB SOT IN RAGOVERNADOR VALADARES35024190MG191020190000000000000010000000000000000000000000000000000000000000000000000000000000000090789046660000000        
7560001300127A0000007560407100000933250010 MARTIERES ALVES BADARO        114406407         0019102019BRL000000000000000000000000000001                    19102019000000000000001                                        0100004     00000000000
7560001300128B   100011440640742RUA CASCALHEIRA               00000CX             AGR OZIEL A PERGOVERNADOR VALADARES35970000MG191020190000000000000010000000000000000000000000000000000000000000000000000000000000000114406407420000000        
7560001300129A0000007560407100000932700012 MARCO TULIO DIAS GOMES        652966486         0219102019BRL000000000000000000000000000001                    19102019000000000000001                                        0100004     00000000000
7560001300130B   100065296648668RUA OMAR DE MAGALHAES         00258               CENTRO         GOVERNADOR VALADARES35010270MG191020190000000000000010000000000000000000000000000000000000000000000000000000000000000652966486680000000        
7560001300131A0000007560407100000932920012 DJALMA LEITAO DE MENEZES      836965716         0219102019BRL000000000000000000000000000001                    19102019000000000000001                                        0100004     00000000000
7560001300132B   100083696571687RUA DA ENCOSTA                00111               ALTINOPOLIS    GOVERNADOR VALADARES35053160MG191020190000000000000010000000000000000000000000000000000000000000000000000000000000000836965716870000000        
7560001300133A0000007560407100000297384325 LILIAN SANTOS DE OLIVEIRA ANDR096909126         0519102019BRL000000000000000000000000000001                    19102019000000000000001                                        0100004     00000000000
7560001300134B   100009690912658AVENIDA MOACIR PALLETA        01177AP BL 02       SAO PEDRO      GOVERNADOR VALADARES35020360MG191020190000000000000010000000000000000000000000000000000000000000000000000000000000000096909126580000000        
7560001300135A0000007560407100000932780016 AMANDA COIMBRA FERREIRA       016434226         0619102019BRL000000000000000000000000000001                    19102019000000000000001                                        0100004     00000000000
7560001300136B   100001643422650RUA HEMATITA                  00152CS             KENNEDY        GOVERNADOR VALADARES35051300MG191020190000000000000010000000000000000000000000000000000000000000000000000000000000000016434226500000000        
7560001300137A0000007560407100000935180010 DEUSDETE ALVES DE AMORIM      035349116         0019102019BRL000000000000000000000000000001                    19102019000000000000001                                        0100004     00000000000
7560001300138B   100003534911601RUA O DOIS                    00196               CONJUNTO SIR   GOVERNADOR VALADARES35024760MG191020190000000000000010000000000000000000000000000000000000000000000000000000000000000035349116010000000        
7560001300139A0000007560407100000934150010 VALQUIRIA ALMEIDA CUNHA RESEND836690006         0019102019BRL000000000000000000000000000001                    19102019000000000000001                                        0100004     00000000000
7560001300140B   100083669000615RUA BARBARA HELIODORA         01506207            CENTRO         GOVERNADOR VALADARES35010040MG191020190000000000000010000000000000000000000000000000000000000000000000000000000000000836690006150000000        
7560001300141A0000007560407100000933110014 ITAMAR APOSTOLO DA SILVA      759943566         0419102019BRL000000000000000000000000000001                    19102019000000000000001                                        0100004     00000000000
7560001300142B   100075994356620RUA OITO                      00102               JK III         GOVERNADOR VALADARES35001970MG191020190000000000000010000000000000000000000000000000000000000000000000000000000000000759943566200000000        
7560001300143A0000007560407100000934460019 MANOEL VITORINO DE OLIVEIRA   051976876         0919102019BRL000000000000000000000000000001                    19102019000000000000001                                        0100004     00000000000
7560001300144B   100005197687606RUA TOME DE SOUZA             00143               VERA CRUZ      GOVERNADOR VALADARES35041740MG191020190000000000000010000000000000000000000000000000000000000000000000000000000000000051976876060000000        
7560001300145A0000007560407100000938450018 ARTHUR PEREZ NUNES            034813716         0819102019BRL000000000000000000000000000001                    19102019000000000000001                                        0100004     00000000000
7560001300146B   100003481371683RUA DEZOITO                   00510               ILHA DOS ARAUJOGOVERNADOR VALADARES35020670MG191020190000000000000010000000000000000000000000000000000000000000000000000000000000000034813716830000000        
7560001300147A0000007560407100000932740014 CRISTIANE DE BRITO VASCONCELOS015934746         0419102019BRL000000000000000000000000000001                    19102019000000000000001                                        0100004     00000000000
7560001300148B   100001593474679RUA OICILEF GUERRA            00129               CASTANHEIRAS   GOVERNADOR VALADARES35054776MG191020190000000000000010000000000000000000000000000000000000000000000000000000000000000015934746790000000        
7560001300149A0000007560407100000933180012 JOSE ROBERTO ARAUJO BRASILEIRO540987776         0219102019BRL000000000000000000000000000001                    19102019000000000000001                                        0100004     00000000000
7560001300150B   100054098777649RUA EMBAUBA                   00112CS A           TURMALINA      GOVERNADOR VALADARES35052810MG191020190000000000000010000000000000000000000000000000000000000000000000000000000000000540987776490000000        
7560001300151A0000007560407100000932810012 ANE CAROLINE MACHADO LOPES    141233946         0219102019BRL000000000000000000000000000001                    19102019000000000000001                                        0100004     00000000000
7560001300152B   100014123394647RUA PROFESSORA CONCEICAO TEODO00254CS F           SAO PAULO      GOVERNADOR VALADARES35030510MG191020190000000000000010000000000000000000000000000000000000000000000000000000000000000141233946470000000        
7560001300153A0000007560407100000935130012 GERALDO ROBERTO FERREIRA      785832256         0219102019BRL000000000000000000000000000001                    19102019000000000000001                                        0100004     00000000000
7560001300154B   100078583225672RUA ONZE                      00082               N S FATIMA     GOVERNADOR VALADARES35050520MG191020190000000000000010000000000000000000000000000000000000000000000000000000000000000785832256720000000        
7560001300155A0000007560407100000932730019 SANIA ARAUJO SILVA            058937466         0919102019BRL000000000000000000000000000001                    19102019000000000000001                                        0100004     00000000000
7560001300156B   100005893746643RUA BULGARIA                  00052CS B           GRA DUQUESA    GOVERNADOR VALADARES35057100MG191020190000000000000010000000000000000000000000000000000000000000000000000000000000000058937466430000000        
7560001300157A0000007560407100000936500018 ILDEU BATISTA ARRUDA          837019406         0819102019BRL000000000000000000000000000001                    19102019000000000000001                                        0100004     00000000000
7560001300158B   100083701940606RUA DA MATRIZ                 00235CS             DIVINO TRAIRA  ENGENHEIRO CALDAS   35130000MG191020190000000000000010000000000000000000000000000000000000000000000000000000000000000837019406060000000        
7560001300159A0000007560407100000933200013 KETHEN GRACIELI DE OLIVEIRA   081293426         0319102019BRL000000000000000000000000000001                    19102019000000000000001                                        0100004     00000000000
7560001300160B   100008129342618RUA SANTO ANTONIO             00219CS A           LOURDES        GOVERNADOR VALADARES35030640MG191020190000000000000010000000000000000000000000000000000000000000000000000000000000000081293426180000000        
7560001300161A0000007560407100000934040010 WESLEI DA SILVA GUEDES        103125176         0019102019BRL000000000000000000000000000001                    19102019000000000000001                                        0100004     00000000000
7560001300162B   100010312517661RUA JOSE HATEM                00138CS             C H S I RAMOS  GOVERNADOR VALADARES35024760MG191020190000000000000010000000000000000000000000000000000000000000000000000000000000000103125176610000000        
7560001300163A0000007560407100000933310013 WARLYN GONCALVES DE SOUZA     126242056         0319102019BRL000000000000000000000000000001                    19102019000000000000001                                        0100004     00000000000
7560001300164B   100012624205632RUA GUIANA                    00466               JARDIM PEROLA  GOVERNADOR VALADARES35051290MG191020190000000000000010000000000000000000000000000000000000000000000000000000000000000126242056320000000        
7560001300165A0000007560407100000932800017 ANDERSON FERREIRA ALVES ANICET076504416         0719102019BRL000000000000000000000000000001                    19102019000000000000001                                        0100004     00000000000
7560001300166B   100007650441610AVENIDA LUIZ GONCALVES LESSA  00599CS             JARDIM IPE     GOVERNADOR VALADARES35041380MG191020190000000000000010000000000000000000000000000000000000000000000000000000000000000076504416100000000        
7560001300167A0000007560407100000933270011 OSMAR CHAVES DA SILVA         051942556         0119102019BRL000000000000000000000000000001                    19102019000000000000001                                        0100004     00000000000
7560001300168B   100005194255616AVENIDA JK                    02610APT 102        VILA RICA      GOVERNADOR VALADARES35045250MG191020190000000000000010000000000000000000000000000000000000000000000000000000000000000051942556160000000        
7560001300169A0000007560407100000933470010 WAGNER FERREIRA SOUZA         012972256         0019102019BRL000000000000000000000000000001                    19102019000000000000001                                        0100004     00000000000
7560001300170B   100001297225619RUA PADRE SADI RABELO         00137CS             SAO GERALDO    GOVERNADOR VALADARES35012070MG191020190000000000000010000000000000000000000000000000000000000000000000000000000000000012972256190000000        
7560001300171A0000007560407100000297362267 PATRIK BRUNIER CUSTODIO FREIRE128976006         0719102019BRL000000000000000000000000000001                    19102019000000000000001                                        0100004     00000000000
7560001300172B   100012897600632RUA GERO DIAS DOS SANTOS      00349CS             JARDIM ATALAIA GOVERNADOR VALADARES35042020MG191020190000000000000010000000000000000000000000000000000000000000000000000000000000000128976006320000000        
7560001300173A0000007560407100000937020010 JOSE LUIS ALVES               035848896         0019102019BRL000000000000000000000000000001                    19102019000000000000001                                        0100004     00000000000
7560001300174B   100003584889669RUA J                         00028CS             NOVO HORIZONTE GOVERNADOR VALADARES35040818MG191020190000000000000010000000000000000000000000000000000000000000000000000000000000000035848896690000000        
7560001300175A0000007560407100000936420014 BARBARA DE OLIVEIRA NUNES DO N021864856         0419102019BRL000000000000000000000000000001                    19102019000000000000001                                        0100004     00000000000
7560001300176B   100002186485613RUA FICOS                     00030CASA           FLORESTA       GOVERNADOR VALADARES35022610MG191020190000000000000010000000000000000000000000000000000000000000000000000000000000000021864856130000000        
7560001300177A0000007560407100000931020018 SANDRO AMARAL DE SOUSA        118192176         0819102019BRL000000000000000000000000000001                    19102019000000000000001                                        0100004     00000000000
7560001300178B   100011819217671RUA SENADOR MILTON CAMPOS     00274CS             VILA ISA       GOVERNADOR VALADARES35043560MG191020190000000000000010000000000000000000000000000000000000000000000000000000000000000118192176710000000        
7560001300179A0000007560407100000940470012 CLAUDIO HENRIQUE DA SILVA NASC074354176         0219102019BRL000000000000000000000000000001                    19102019000000000000001                                        0100004     00000000000
7560001300180B   100007435417661RUA MARECHAL FLORIANO         01171AP 204         CENTRO         GOVERNADOR VALADARES35010141MG191020190000000000000010000000000000000000000000000000000000000000000000000000000000000074354176610000000        
7560001300181A0000007560407100000940510014 FELIPE AQUINO ALVES           118721076         0419102019BRL000000000000000000000000000001                    19102019000000000000001                                        0100004     00000000000
7560001300182B   100011872107656RUA LOUIZ ENSCH               00055               ALTINOPOLIS    GOVERNADOR VALADARES35053370MG191020190000000000000010000000000000000000000000000000000000000000000000000000000000000118721076560000000        
7560001300183A0000007560407100000933640013 WILIAN DE OLIVEIRA VIEIRA     016270366         0319102019BRL000000000000000000000000000001                    19102019000000000000001                                        0100004     00000000000
7560001300184B   100001627036601RUA NOBERTO LUIZ DE ALMEIDA   00547CS             TIRADENTES     GOVERNADOR VALADARES35040894MG191020190000000000000010000000000000000000000000000000000000000000000000000000000000000016270366010000000        
7560001300185A0000007560407100009916400580 FERNANDO FERREIRA DE JESUS    085828676         0019102019BRL000000000000000000000000000001                    19102019000000000000001                                        0100004     00000000000
7560001300186B   100008582867697RUA NOBERTO LUIZ DE ALMEIDA   00557               TIRADENTES     GOVERNADOR VALADARES35040894MG191020190000000000000010000000000000000000000000000000000000000000000000000000000000000085828676970000000        
7560001300187A0000007560407100009916403724 REGINALDO ALVES DA SILVA      087723216         0419102019BRL000000000000000000000000000001                    19102019000000000000001                                        0100004     00000000000
7560001300188B   100008772321644RUA FLAMBOYANTS               00545CS             ALTINOPOLIS    GOVERNADOR VALADARES35053210MG191020190000000000000010000000000000000000000000000000000000000000000000000000000000000087723216440000000        
7560001300189A0000007560407100009916403708 MARCO AURELIO DE MORAIS JUNIOR116020736         0819102019BRL000000000000000000000000000001                    19102019000000000000001                                        0100004     00000000000
7560001300190B   100011602073643RUA BARAUNA                   00275               JARDIM IPE     GOVERNADOR VALADARES35043100MG191020190000000000000010000000000000000000000000000000000000000000000000000000000000000116020736430000000        
7560001300191A0000007560407100009916407215 MANOEL PONCIANO DE OLIVEIRA   121650686         0519102019BRL000000000000000000000000000001                    19102019000000000000001                                        0100004     00000000000
7560001300192B   100012165068681RUA ESCUMILHA                 00306               TURMALINA      GOVERNADOR VALADARES35052805MG191020190000000000000010000000000000000000000000000000000000000000000000000000000000000121650686810000000        
7560001300193A0000007560407100009916407207 CLEIDSON DA SILVA ALVES       108058516         0719102019BRL000000000000000000000000000001                    19102019000000000000001                                        0100004     00000000000
7560001300194B   100010805851682RUA GERALDO VIEIRA DOS SANTOS 00127               SAO TARCISIO   GOVERNADOR VALADARES35020620MG191020190000000000000010000000000000000000000000000000000000000000000000000000000000000108058516820000000        
7560001300195A0000007560407100009916407177 MARCOS JOSE MARCOLINO         219441798         0719102019BRL000000000000000000000000000001                    19102019000000000000001                                        0100004     00000000000
7560001300196B   100021944179828RUA DUARTE COELHO             00204AP 102         MORADA DO VALE GOVERNADOR VALADARES35057150MG191020190000000000000010000000000000000000000000000000000000000000000000000000000000000219441798280000000        
7560001300197A0000007560407100009916407185 NAYARA FELISBERTO DE OLIVEIRA 102031556         0519102019BRL000000000000000000000000000001                    19102019000000000000001                                        0100004     00000000000
7560001300198B   100010203155637RUA SANTA BERNADETE           00271CS             MAE DE DEUS    GOVERNADOR VALADARES35053590MG191020190000000000000010000000000000000000000000000000000000000000000000000000000000000102031556370000000        
7560001300199A0000007560407100009916407126 SANDRA DE SOUSA GERMANA       042798356         0619102019BRL000000000000000000000000000001                    19102019000000000000001                                        0100004     00000000000
7560001300200B   100004279835683AVENIDA WASHINGTON LUIZ       02501AP 3103        SANTA RITA     GOVERNADOR VALADARES35040164MG191020190000000000000010000000000000000000000000000000000000000000000000000000000000000042798356830000000        
7560001300201A0000007560407100009916408793 RUBIA CRISTIANE ASSUNCAO      017364546         0319102019BRL000000000000000000000000000001                    19102019000000000000001                                        0100004     00000000000
7560001300202B   100001736454617AVENIDA ATALAIA               00680               GRA DUQUESA    GOVERNADOR VALADARES35057380MG191020190000000000000010000000000000000000000000000000000000000000000000000000000000000017364546170000000        
7560001300203A0000007560407100009916408840 HELIO BORGES DA SILVA JUNIOR  155786206         0019102019BRL000000000000000000000000000001                    19102019000000000000001                                        0100004     00000000000
7560001300204B   100015578620604RUA DOIS                      00070               PENHA          GOVERNADOR VALADARES35040700MG191020190000000000000010000000000000000000000000000000000000000000000000000000000000000155786206040000000        
7560001300205A0000007560407100009916408831 FABIO GABRIEL DOS SANTOS      013965086         0119102019BRL000000000000000000000000000001                    19102019000000000000001                                        0100004     00000000000
7560001300206B   100001396508651AVENIDA MINAS GERAIS          02661               GRA DUQUESA    GOVERNADOR VALADARES35057760MG191020190000000000000010000000000000000000000000000000000000000000000000000000000000000013965086510000000        
7560001300207A0000007560407100009916408866 MAURICIO VALENTE DE OLIVEIRA  085038806         0619102019BRL000000000000000000000000000001                    19102019000000000000001                                        0100004     00000000000
7560001300208B   100008503880660RUA JOSE DO PATROCINIO        01099               SAO PEDRO      GOVERNADOR VALADARES35020280MG191020190000000000000010000000000000000000000000000000000000000000000000000000000000000085038806600000000        
7560001300209A0000007560407100000297368117 JULIO SOARES DOS REIS         077980816         0719102019BRL000000000000000000000000000001                    19102019000000000000001                                        0100004     00000000000
7560001300210B   100007798081690RUA GUARUJA                   00763CS             N S DAS GRACAS GOVERNADOR VALADARES35060220MG191020190000000000000010000000000000000000000000000000000000000000000000000000000000000077980816900000000        
7560001300211A0000007560407100000297368516 DOUGLAS LUIZ GOMES            106395586         0619102019BRL000000000000000000000000000001                    19102019000000000000001                                        0100004     00000000000
7560001300212B   100010639558666RUA I                         00090CS             CONQUISTA      GOVERNADOR VALADARES35041616MG191020190000000000000010000000000000000000000000000000000000000000000000000000000000000106395586660000000        
7560001300213A0000007560407100000297368176 IGOR COSTA LAYNNER            126379666         0619102019BRL000000000000000000000000000001                    19102019000000000000001                                        0100004     00000000000
7560001300214B   100012637966645AVENIDA RAIMUNDO ALBERGARIA   00417               SANTA HELENA   GOVERNADOR VALADARES35059090MG191020190000000000000010000000000000000000000000000000000000000000000000000000000000000126379666450000000        
7560001300215A0000007560407100000297369199 LUCIANA PEREIRA               079230916         0919102019BRL000000000000000000000000000001                    19102019000000000000001                                        0100004     00000000000
7560001300216B   100007923091625RUA AROEIRA                   0460 CS             CIDADE NOVA    GOVERNADOR VALADARES35063006MG191020190000000000000010000000000000000000000000000000000000000000000000000000000000000079230916250000000        
7560001300217A0000007560407100000297369210 RODRIGO GOMES VIEIRA          099170416         0019102019BRL000000000000000000000000000001                    19102019000000000000001                                        0100004     00000000000
7560001300218B   100009917041699RUA PROFESSOR JOSE DE CARVALHO00560CS A           SAO PEDRO      GOVERNADOR VALADARES35020440MG191020190000000000000010000000000000000000000000000000000000000000000000000000000000000099170416990000000        
7560001300219A0000007560407100000297371088 EDMAR DOS SANTOS SOUZA        038050576         0819102019BRL000000000000000000000000000001                    19102019000000000000001                                        0100004     00000000000
7560001300220B   100003805057628RUA DAS QUARESMEIRAS          00216CS             ALTINOPOLIS    GOVERNADOR VALADARES35053550MG191020190000000000000010000000000000000000000000000000000000000000000000000000000000000038050576280000000        
7560001300221A0000007560407100000297372440 ISMAEL TEIXEIRA DE OLIVEIRA   068271246         0019102019BRL000000000000000000000000000001                    19102019000000000000001                                        0100004     00000000000
7560001300222B   100006827124690RUA MARANHAO                  00310CS             LOURDES        GOVERNADOR VALADARES35032290MG191020190000000000000010000000000000000000000000000000000000000000000000000000000000000068271246900000000        
7560001300223A0000007560407100000297374079 LUIZ RICARDO LIMA JUNIOR      028343056         0919102019BRL000000000000000000000000000001                    19102019000000000000001                                        0100004     00000000000
7560001300224B   100002834305676RUA IVO DE TASSIS             00045CS             JK III         GOVERNADOR VALADARES35045614MG191020190000000000000010000000000000000000000000000000000000000000000000000000000000000028343056760000000        
7560001300225A0000007560407100000297373340 EVALDO NUNES ASTENREITER      066744336         0019102019BRL000000000000000000000000000001                    19102019000000000000001                                        0100004     00000000000
7560001300226B   100006674433632RUA UM                        00271CASA           VALE DO SOL II GOVERNADOR VALADARES35042843MG191020190000000000000010000000000000000000000000000000000000000000000000000000000000000066744336320000000        
7560001300227A0000007560407100000934440018 HERMIRIO TEIXEIRA PONCIANO    006184936         0819102019BRL000000000000000000000000000001                    19102019000000000000001                                        0100004     00000000000
7560001300228B   100000618493670RUA OITO                      00311CASA           JARDIM DO TREVOGOVERNADOR VALADARES35054410MG191020190000000000000010000000000000000000000000000000000000000000000000000000000000000006184936700000000        
7560001300229A0000007560407100000297374575 MARLON FERNANDES DA SILVA     120825216         0519102019BRL000000000000000000000000000001                    19102019000000000000001                                        0100004     00000000000
7560001300230B   100012082521605RUA QUATORZE                  00122CS             VALE DO SOL    GOVERNADOR VALADARES35042815MG191020190000000000000010000000000000000000000000000000000000000000000000000000000000000120825216050000000        
7560001300231A0000007560407100000297375768 JONATAS FIDELIS DA SILVA      093747786         0819102019BRL000000000000000000000000000001                    19102019000000000000001                                        0100004     00000000000
7560001300232B   100009374778696AVENIDA DOUTOR ALTAMIRANDO COL00517AP 302         FLORESTA       GOVERNADOR VALADARES35022618MG191020190000000000000010000000000000000000000000000000000000000000000000000000000000000093747786960000000        
7560001300233A0000007560407100000297377094 ALCIDES LAUDIENE CARDOSO      878724636         0419102019BRL000000000000000000000000000001                    19102019000000000000001                                        0100004     00000000000
7560001300234B   100087872463687RUA VALE FORMOSO              01489CS             KENNEDY        GOVERNADOR VALADARES35051520MG191020190000000000000010000000000000000000000000000000000000000000000000000000000000000878724636870000000        
7560001300235A0000007560407100000297376020 THOMAS JEFFERSON ARAUJO DAS GR164803207         0019102019BRL000000000000000000000000000001                    19102019000000000000001                                        0100004     00000000000
7560001300236B   100016480320794RUA DIAMANTINA                00223               SANTA HELENA   GOVERNADOR VALADARES35059170MG191020190000000000000010000000000000000000000000000000000000000000000000000000000000000164803207940000000        
7560001300237A0000007560407100000297379046 MARCUS ANTONIO ALMEIDA ALENCAR123677546         0619102019BRL000000000000000000000000000001                    19102019000000000000001                                        0100004     00000000000
7560001300238B   100012367754659RUA MATO GROSSO               00526               LOURDES        GOVERNADOR VALADARES35032300MG191020190000000000000010000000000000000000000000000000000000000000000000000000000000000123677546590000000        
7560001300239A0000007560407100000297384996 SEBASTIAO JUNIOR DE SOUZA NETO132422206         0619102019BRL000000000000000000000000000001                    19102019000000000000001                                        0100004     00000000000
7560001300240B   100013242220692RUA H                         00192CASA           FRATERNIDADE   GOVERNADOR VALADARES35050410MG191020190000000000000010000000000000000000000000000000000000000000000000000000000000000132422206920000000        
7560001300241A0000007560407100000297384430 MARCIO PAIS DE QUEIROZ        982336616         0019102019BRL000000000000000000000000000001                    19102019000000000000001                                        0100004     00000000000
7560001300242B   100098233661600RUA MARTIM LUTERO             00075AP 402         ESPLANADA      GOVERNADOR VALADARES35020330MG191020190000000000000010000000000000000000000000000000000000000000000000000000000000000982336616000000000        
7560001300243A0000007560407100000297386743 EZEQUIEL GONCALVES SALES      094317416         0319102019BRL000000000000000000000000000001                    19102019000000000000001                                        0100004     00000000000
7560001300244B   100009431741636AVENIDA B                     00393AP 202 BL 06   VALE DO SOL    GOVERNADOR VALADARES35042290MG191020190000000000000010000000000000000000000000000000000000000000000000000000000000000094317416360000000        
7560001300245A0000007560407100000917640012 DIEGO SANTIAGO SILVA          057249556         0219102019BRL000000000000000000000000000001                    19102019000000000000001                                        0100004     00000000000
7560001300246B   100005724955601RUA LIANA CABRAL              00779               VILA PASTORIL IGOVERNADOR VALADARES35045520MG191020190000000000000010000000000000000000000000000000000000000000000000000000000000000057249556010000000        
7560001300247A0000007560407100000936430010 CELIO PRESCE CURY             982338406         0019102019BRL000000000000000000000000000001                    19102019000000000000001                                        0100004     00000000000
7560001300248B   100098233840610RUA D                         00098CS A           VILA IMPERIO   GOVERNADOR VALADARES35050590MG191020190000000000000010000000000000000000000000000000000000000000000000000000000000000982338406100000000        
7560001300249A0000007560407100000297389629 MARCELO DE OLIVEIRA NAZARETH  003377296         0919102019BRL000000000000000000000000000001                    19102019000000000000001                                        0100004     00000000000
7560001300250B   100000337729670RUA CECILIA SIQUEIRA          00071CX             SANTA RITA     GOVERNADOR VALADARES35040100MG191020190000000000000010000000000000000000000000000000000000000000000000000000000000000003377296700000000        
7560001300251A0000007560407100000297392417 ANDERSON DANTAS FIGUEIREDO    070261346         0719102019BRL000000000000000000000000000001                    19102019000000000000001                                        0100004     00000000000
7560001300252B   100007026134604RUA JOSE CANDIDO DA COSTA     00089CASA A         JK III         GOVERNADOR VALADARES35045604MG191020190000000000000010000000000000000000000000000000000000000000000000000000000000000070261346040000000        
7560001300253A0000007560407100000297396366 GUSTAVO DE OLIVEIRA LIMA      120459066         0619102019BRL000000000000000000000000000001                    19102019000000000000001                                        0100004     00000000000
7560001300254B   100012045906647AVENIDA WENCESLAU BRAZ        00343CASA A         SANTA RITA     GOVERNADOR VALADARES35040570MG191020190000000000000010000000000000000000000000000000000000000000000000000000000000000120459066470000000        
7560001300255A0000007560407100000297396382 JOSE FERNANDES DO NASCIMENTO  040713216         0219102019BRL000000000000000000000000000001                    19102019000000000000001                                        0100004     00000000000
7560001300256B   100004071321636RUA SEIS                      00024CASA A         CHACARA BRAUNASGOVERNADOR VALADARES35023020MG191020190000000000000010000000000000000000000000000000000000000000000000000000000000000040713216360000000        
7560001300257A0000007560407100000297396390 MATHEUS DE BARROS SILVA       126009996         0019102019BRL000000000000000000000000000001                    19102019000000000000001                                        0100004     00000000000
7560001300258B   100012600999620RUA SANTO AGOSTINHO           00045CS             VILA MARIANA   GOVERNADOR VALADARES35012090MG191020190000000000000010000000000000000000000000000000000000000000000000000000000000000126009996200000000        
7560001300259A0000007560407100000297396021 NILZA HELENA DE ALMEIDA       052527436         0119102019BRL000000000000000000000000000001                    19102019000000000000001                                        0100004     00000000000
7560001300260B   100005252743673RUA CRISTAL                   00570304            SAO RAIMUNDO   GOVERNADOR VALADARES35043220MG191020190000000000000010000000000000000000000000000000000000000000000000000000000000000052527436730000000        
7560001300261A0000007560407100000297396404 SEBASTIAO DE SOUZA LOPES      005192307         0419102019BRL000000000000000000000000000001                    19102019000000000000001                                        0100004     00000000000
7560001300262B   100000519230760RUA DOIS                      0104 CS C           SAO PAULO      GOVERNADOR VALADARES35030282MG191020190000000000000010000000000000000000000000000000000000000000000000000000000000000005192307600000000        
7560001300263A0000007560407100000297396048 WANUSA MIRANDA ANDRADE VIEIRA 055797126         0819102019BRL000000000000000000000000000001                    19102019000000000000001                                        0100004     00000000000
7560001300264B   100005579712685RUA GRIMALDO BARROS DE PAULA  0324 CS             JK I           GOVERNADOR VALADARES35045650MG191020190000000000000010000000000000000000000000000000000000000000000000000000000000000055797126850000000        
7560001300265A0000007560407100000934120013 WADE RIBEIRO DE MAGALHAES     076824136         0319102019BRL000000000000000000000000000001                    19102019000000000000001                                        0100004     00000000000
7560001300266B   100007682413670RUA ISRAEL PINHEIRO           01723AP 203         SANTOS DUMONT IGOVERNADOR VALADARES35020220MG191020190000000000000010000000000000000000000000000000000000000000000000000000000000000076824136700000000        
7560001300267A0000007560407100000917530012 ANTONIO JUNIOR RIBEIRO ROCHA  116084406         0219102019BRL000000000000000000000000000001                    19102019000000000000001                                        0100004     00000000000
7560001300268B   100011608440621RUA RODOLFO DE ABREU          00407               SANTA RITA     GOVERNADOR VALADARES35040430MG191020190000000000000010000000000000000000000000000000000000000000000000000000000000000116084406210000000        
7560001300269A0000007560407100000917570014 WANDERSON TAVARES MELO        015882236         0419102019BRL000000000000000000000000000001                    19102019000000000000001                                        0100004     00000000000
7560001300270B   100001588223663RUA JOAO P NEVES              00231               SAO CRISTOVAO  GOVERNADOR VALADARES35050090MG191020190000000000000010000000000000000000000000000000000000000000000000000000000000000015882236630000000        
7560001300271A0000007560407100000917600010 MARIA ALAIDE DAMASCENO TEIXEIR615604646         0019102019BRL000000000000000000000000000001                    19102019000000000000001                                        0100004     00000000000
7560001300272B   100061560464615RUA H                         00027               SAO JOSE       GOVERNADOR VALADARES35050330MG191020190000000000000010000000000000000000000000000000000000000000000000000000000000000615604646150000000        
7560001300273A0000007560407100000917590015 WELINGTON NUNES DA SILVA      046984156         0519102019BRL000000000000000000000000000001                    19102019000000000000001                                        0100004     00000000000
7560001300274B   100004698415675RUA JOSE BATISTA DE MELO 308  00308               JARDIM DO TREVOGOVERNADOR VALADARES35054470MG191020190000000000000010000000000000000000000000000000000000000000000000000000000000000046984156750000000        
7560001300275A0000007560407100000917650018 KASSIOS DANTAS                762245466         0819102019BRL000000000000000000000000000001                    19102019000000000000001                                        0100004     00000000000
7560001300276B   100076224546649RUA MOGNO                     00078               JARDIM IPE     GOVERNADOR VALADARES35043360MG191020190000000000000010000000000000000000000000000000000000000000000000000000000000000762245466490000000        
7560001300277A0000007560407100000936390018 NILSON PEREIRA                030385176         0819102019BRL000000000000000000000000000001                    19102019000000000000001                                        0100004     00000000000
7560001300278B   100003038517674RUA SABINOPOLIS               00223CS A           SANTA RITA     GOVERNADOR VALADARES35040480MG191020190000000000000010000000000000000000000000000000000000000000000000000000000000000030385176740000000        
7560001300279A0000007560407100009916403732 MILTON ROGERIO DE OLIVEIRA    975852706         0219102019BRL000000000000000000000000000001                    19102019000000000000001                                        0100004     00000000000
7560001300280B   100097585270615RUA TERTULIANO VIEIRA         0207 CS B           SANTA HELENA   GOVERNADOR VALADARES35058340MG191020190000000000000010000000000000000000000000000000000000000000000000000000000000000975852706150000000        
7560001300281A0000007560407100000938470019 JEFERSON CRUZ DE FARIA        016475316         0919102019BRL000000000000000000000000000001                    19102019000000000000001                                        0100004     00000000000
7560001300282B   100001647531683RUA ITABIRITO                 00218CS             TURMALINA      GOVERNADOR VALADARES35052860MG191020190000000000000010000000000000000000000000000000000000000000000000000000000000000016475316830000000        
7560001300283A0000007560407100000297376560 FERNANDA BRASILEIRO DE SOUZA  015398996         0019102019BRL000000000000000000000000000001                    19102019000000000000001                                        0100004     00000000000
7560001300284B   100001539899632RUA DA ESTRADA                01240CS             VILA RICA      GOVERNADOR VALADARES35045140MG191020190000000000000010000000000000000000000000000000000000000000000000000000000000000015398996320000000        
7560001300285A0000007560407100000931010012 MARCOS GOMES DIAS             042578666         0219102019BRL000000000000000000000000000001                    19102019000000000000001                                        0100004     00000000000
7560001300286B   100004257866683RUA O                         00225CS             VALE VERDE     GOVERNADOR VALADARES35059640MG191020190000000000000010000000000000000000000000000000000000000000000000000000000000000042578666830000000        
7560001300287A0000007560407100000297363794 GESIO RIBEIRO DA SILVA        063618846         0419102019BRL000000000000000000000000000001                    19102019000000000000001                                        0100004     00000000000
7560001300288B   100006361884694RUA HENRIQUE BAHIA            00048CS B           CENTRO         GOVERNADOR VALADARES35010420MG191020190000000000000010000000000000000000000000000000000000000000000000000000000000000063618846940000000        
7560001300289A0000007560407100000297370405 MIRELLY MAGALHAES FARIA       066207096         0519102019BRL000000000000000000000000000001                    19102019000000000000001                                        0100004     00000000000
7560001300290B   100006620709680RUA GERALDINO BARBOSA         01685               VILA ISA       GOVERNADOR VALADARES35041820MG191020190000000000000010000000000000000000000000000000000000000000000000000000000000000066207096800000000        
7560001300291A0000007560407100000297370111 MIRO FERREIRA DA SILVA        028125676         0119102019BRL000000000000000000000000000001                    19102019000000000000001                                        0100004     00000000000
7560001300292B   100002812567643RUA ARGENTINA                 00265               JARDIM PEROLA  GOVERNADOR VALADARES35051030MG191020190000000000000010000000000000000000000000000000000000000000000000000000000000000028125676430000000        
7560001300293A0000007560407100000932280013 ALEX ESTEVES DE OLIVEIRA      012023236         0319102019BRL000000000000000000000000000001                    19102019000000000000001                                        0100004     00000000000
7560001300294B   100001202323677RUA FRANCISCO DE CASTRO       00208CS A           PALMEIRAS      GOVERNADOR VALADARES35052370MG191020190000000000000010000000000000000000000000000000000000000000000000000000000000000012023236770000000        
7560001300295A0000007560407100000297386255 VALTER MENDES DE OLIVEIRA     963028876         0519102019BRL000000000000000000000000000001                    19102019000000000000001                                        0100004     00000000000
7560001300296B   100096302887615RUA CENTO E ONZE              00149CASA A         AZTECA         GOVERNADOR VALADARES35042100MG191020190000000000000010000000000000000000000000000000000000000000000000000000000000000963028876150000000        
7560001300297A0000007560407100000297386263 MARCOS ANTONIO FERREIRA VELITA113884166         0319102019BRL000000000000000000000000000001                    19102019000000000000001                                        0100004     00000000000
7560001300298B   100011388416689RUA ANTONIETE FERNANDES       00257               N S DAS GRACAS GOVERNADOR VALADARES35060010MG191020190000000000000010000000000000000000000000000000000000000000000000000000000000000113884166890000000        
7560001300299A0000007560407100000297396374 JOSE ADILSON SOUZA            796987006         0419102019BRL000000000000000000000000000001                    19102019000000000000001                                        0100004     00000000000
7560001300300B   100079698700668AVENIDA RIO BAHIA             00620CASA           PLANALTO       GOVERNADOR VALADARES35054060MG191020190000000000000010000000000000000000000000000000000000000000000000000000000000000796987006680000000        
7560001300301A0000007560407100000927220016 MILTON TORRENTES SIQUEIRA     852641566         0619102019BRL000000000000000000000000000001                    19102019000000000000001                                        0100004     00000000000
7560001300302B   100085264156620RUA OITO                      00150               JARDIM DO TREVOGOVERNADOR VALADARES35010000MG191020190000000000000010000000000000000000000000000000000000000000000000000000000000000852641566200000000        
7560001300303A0000007560407100000927250012 GILBERTO ALVES PINHEIRO       643312456         0219102019BRL000000000000000000000000000001                    19102019000000000000001                                        0100004     00000000000
7560001300304B   100064331245691RUA DOS SOBREIROS             00068               TURMALINA      GOVERNADOR VALADARES35052834MG191020190000000000000010000000000000000000000000000000000000000000000000000000000000000643312456910000000        
7560001300305A0000007560407100000927300010 ANDERSON ASSUNCAO MADUREIRA   458687606         0019102019BRL000000000000000000000000000001                    19102019000000000000001                                        0100004     00000000000
7560001300306B   100045868760697RUA MANEOL CORDEIRO SILVA     00645               MORADA DO VALE GOVERNADOR VALADARES35010000MG191020190000000000000010000000000000000000000000000000000000000000000000000000000000000458687606970000000        
7560001300307A0000007560407100000927150018 WANDERLEY MENDES DE OLIVEIRA  053785496         0819102019BRL000000000000000000000000000001                    19102019000000000000001                                        0100004     00000000000
7560001300308B   100005378549671RUA CENTO E ONZE              00149               AZTECA         GOVERNADOR VALADARES35010000MG191020190000000000000010000000000000000000000000000000000000000000000000000000000000000053785496710000000        
7560001300309A0000007560407100000927310015 ADELISSON ALVES FERREIRA      058505666         0519102019BRL000000000000000000000000000001                    19102019000000000000001                                        0100004     00000000000
7560001300310B   100005850566686RUA SANTA ISABEL              00191               MAE DE DEUS    GOVERNADOR VALADARES35052060MG191020190000000000000010000000000000000000000000000000000000000000000000000000000000000058505666860000000        
7560001300311A0000007560407100000927280019 EDUARDO LUIZ SILVERIO GOMES   108709926         0919102019BRL000000000000000000000000000001                    19102019000000000000001                                        0100004     00000000000
7560001300312B   100010870992694RUA DO NIQUEL                 00219A              SAO RAIMUNDO   GOVERNADOR VALADARES35041630MG191020190000000000000010000000000000000000000000000000000000000000000000000000000000000108709926940000000        
7560001300313A0000007560407100000927270013 ENIO SOUZA DO NASCIMENTO      039651576         0319102019BRL000000000000000000000000000001                    19102019000000000000001                                        0100004     00000000000
7560001300314B   100003965157620RUA TRINTA E UM               00159               JARDIM ATALAIA GOVERNADOR VALADARES35042640MG191020190000000000000010000000000000000000000000000000000000000000000000000000000000000039651576200000000        
7560001300315A0000007560407100000927290014 ANDRE FILIPE BORGES RIBEIRO   073818666         0419102019BRL000000000000000000000000000001                    19102019000000000000001                                        0100004     00000000000
7560001300316B   100007381866609RUA TRES                      00162               VALE DO SOL II MANTENA             35001970MG191020190000000000000010000000000000000000000000000000000000000000000000000000000000000073818666090000000        
7560001300317A0000007560407100000928580016 ROBERLEI FERNANDES DE OLIVEIRA046394206         0619102019BRL000000000000000000000000000001                    19102019000000000000001                                        0100004     00000000000
7560001300318B   100004639420609RUA SEIS                      00032CS             VALE DO SOL 2  GOVERNADOR VALADARES35042836MG191020190000000000000010000000000000000000000000000000000000000000000000000000000000000046394206090000000        
7560001300319A0000007560407100000927230011 LUCIANA BALESTRERI            033855806         0119102019BRL000000000000000000000000000001                    19102019000000000000001                                        0100004     00000000000
7560001300320B   100003385580633RUA FRANCISCO CAETANO PIMENTEL01248CS             VILA ISA       GOVERNADOR VALADARES35044110MG191020190000000000000010000000000000000000000000000000000000000000000000000000000000000033855806330000000        
7560001300321A0000007560407100000928740013 AILTON TIAGO DE OLIVEIRA      875985236         0319102019BRL000000000000000000000000000001                    19102019000000000000001                                        0100004     00000000000
7560001300322B   100087598523649RUA DOIS                      00039CS             JARDIM ALVORADAGOVERNADOR VALADARES35041871MG191020190000000000000010000000000000000000000000000000000000000000000000000000000000000875985236490000000        
7560001300323A0000007560407100000932330010 AURELIO MARCOS FERREIRA COELHO797302996         0019102019BRL000000000000000000000000000001                    19102019000000000000001                                        0100004     00000000000
7560001300324B   100079730299668RUA ARISTOTELES ANTONIO DE SOU00242CS             VALE VERDE     GOVERNADOR VALADARES35059630MG191020190000000000000010000000000000000000000000000000000000000000000000000000000000000797302996680000000        
7560001300325A0000007560407100000297361740 SILVANILDE PEREIRA MARTINS    043805056         0019102019BRL000000000000000000000000000001                    19102019000000000000001                                        0100004     00000000000
7560001300326B   100004380505685RUA CRISTAL                   00730AP 202 BL 3    SAO RAIMUNDO   GOVERNADOR VALADARES35043220MG191020190000000000000010000000000000000000000000000000000000000000000000000000000000000043805056850000000        
7560001300327A0000007560407100000297371100 JOSE ANTONIO PEREIRA          001483906         0019102019BRL000000000000000000000000000001                    19102019000000000000001                                        0100004     00000000000
7560001300328B   100000148390676RUA VINTE E DOIS 96           000CS               JARDIM ATALAIA GOVERNADOR VALADARES35042680MG191020190000000000000010000000000000000000000000000000000000000000000000000000000000000001483906760000000        
7560001300329A0000007560407100000297368168 VICTOR FERREIRA SALAZAR       084757836         0819102019BRL000000000000000000000000000001                    19102019000000000000001                                        0100004     00000000000
7560001300330B   100008475783643RUA GREVILE                   00038CS             TURMALINA      GOVERNADOR VALADARES35052833MG191020190000000000000010000000000000000000000000000000000000000000000000000000000000000084757836430000000        
7560001300331A0000007560407100000930720016 DAIANA DA SILVA FREITAS       070033276         0619102019BRL000000000000000000000000000001                    19102019000000000000001                                        0100004     00000000000
7560001300332B   100007003327660AVENIDA WASHINGTON LUIS       02806               SANTA RITA     GOVERNADOR VALADARES35040560MG191020190000000000000010000000000000000000000000000000000000000000000000000000000000000070033276600000000        
7560001300333A0000007560407100000297385003 LUDYELLEN MARTINS LAGES       126499596         0319102019BRL000000000000000000000000000001                    19102019000000000000001                                        0100004     00000000000
7560001300334B   100012649959622RUA JUSTICA                   0535 AP 05          VIA RICA       GOVERNADOR VALADARES35045320MG191020190000000000000010000000000000000000000000000000000000000000000000000000000000000126499596220000000        
7560001300335A0000007560407100000297386751 ROBERTO RIBEIRO DOS SANTOS    053015796         0119102019BRL000000000000000000000000000001                    19102019000000000000001                                        0100004     00000000000
7560001300336B   100005301579690RUA MONTE PASCOAL             0411 CS B           VILA DOS MONTESGOVERNADOR VALADARES35041550MG191020190000000000000010000000000000000000000000000000000000000000000000000000000000000053015796900000000        
7560001300337A0000007560407100000297389645 JOAO FELIPE DIAS DE SOUSA     120035866         0519102019BRL000000000000000000000000000001                    19102019000000000000001                                        0100004     00000000000
7560001300338B   100012003586601RUA MONTE TAURO               00121CS             VILA DOS MONTESGOVERNADOR VALADARES35041590MG191020190000000000000010000000000000000000000000000000000000000000000000000000000000000120035866010000000        
7560001300339A0000007560407100000938480014 PHILLIPE FONSECA DOS SANTOS NE120422866         0419102019BRL000000000000000000000000000001                    19102019000000000000001                                        0100004     00000000000
7560001300340B   100012042286630RUA SAO TIAGO MAIOR           00127CS B           VILA MARIANA   GOVERNADOR VALADARES35012280MG191020190000000000000010000000000000000000000000000000000000000000000000000000000000000120422866300000000        
7560001300341A0000007560407100000931000017 RONALDO RODRIGUES DOS SANTOS  073042766         0719102019BRL000000000000000000000000000001                    19102019000000000000001                                        0100004     00000000000
7560001300342B   100007304276681RUA UA CHILE                  00244               JARDIM PEROLA  GOVERNADOR VALADARES35051110MG191020190000000000000010000000000000000000000000000000000000000000000000000000000000000073042766810000000        
7560001300343A0000007560407100000930650018 DENIO CORDEIRO DE SOUZA       600809066         0819102019BRL000000000000000000000000000001                    19102019000000000000001                                        0100004     00000000000
7560001300344B   100060080906672RUA PRUDENTE DE MORAIS        00285E              CENTRO         GOVERNADOR VALADARES35020460MG191020190000000000000010000000000000000000000000000000000000000000000000000000000000000600809066720000000        
7560001300345A0000007560407100000931160014 MARCILIO RODRIGUES GOMES      072963536         0419102019BRL000000000000000000000000000001                    19102019000000000000001                                        0100004     00000000000
7560001300346B   100007296353686RUA BUENOS AIRES              00142               JARDIM PEROLA  GOVERNADOR VALADARES35051070MG191020190000000000000010000000000000000000000000000000000000000000000000000000000000000072963536860000000        
7560001300347A0000007560407100000931270014 FABRICIO DIAS DE OLIVEIRA     038755916         0419102019BRL000000000000000000000000000001                    19102019000000000000001                                        0100004     00000000000
7560001300348B   100003875591674RUA SANTA LUZIA               00030               SAO PAULO      GOVERNADOR VALADARES35030630MG191020190000000000000010000000000000000000000000000000000000000000000000000000000000000038755916740000000        
7560001300349A0000007560407100000931370019 LUCIGREI RIBAS                058322436         0919102019BRL000000000000000000000000000001                    19102019000000000000001                                        0100004     00000000000
7560001300350B   100005832243692RUA M                         00040               FIGUEIRA DO RIOGOVERNADOR VALADARES35010970MG191020190000000000000010000000000000000000000000000000000000000000000000000000000000000058322436920000000        
7560001300351A0000007560407100000930710010 DEVANIR CANUTO DE ARAUJO      054665196         0019102019BRL000000000000000000000000000001                    19102019000000000000001                                        0100004     00000000000
7560001300352B   100005466519685AVENIDA ANHANGUERA            00150               VERA CRUZ      GOVERNADOR VALADARES35041020MG191020190000000000000010000000000000000000000000000000000000000000000000000000000000000054665196850000000        
7560001300353A0000007560407100000931290015 GILSON FERREIRA               942655776         0519102019BRL000000000000000000000000000001                    19102019000000000000001                                        0100004     00000000000
7560001300354B   100094265577687RUA MARANHAO                  00232               N S DE LOURDES GOVERNADOR VALADARES35032290MG191020190000000000000010000000000000000000000000000000000000000000000000000000000000000942655776870000000        
7560001300355A0000007560407100000931250013 LUCIANO BARBOSA DE SOUZA      038201116         0319102019BRL000000000000000000000000000001                    19102019000000000000001                                        0100004     00000000000
7560001300356B   100003820111638AVENIDA RIO DOCE              00018               SAO PEDRO      GOVERNADOR VALADARES35020490MG191020190000000000000010000000000000000000000000000000000000000000000000000000000000000038201116380000000        
7560001300357A0000007560407100000931170010 MARCO ANTONIO ANDRADE SANT'ANA070732386         0019102019BRL000000000000000000000000000001                    19102019000000000000001                                        0100004     00000000000
7560001300358B   100007073238607RUA AGRIPINO R SANTOS         00362               JARDIM PEROLA  GOVERNADOR VALADARES35051000MG191020190000000000000010000000000000000000000000000000000000000000000000000000000000000070732386070000000        
7560001300359A0000007560407100000931240018 EDUARDO MAGNO SALGADO RABELO  055868296         0819102019BRL000000000000000000000000000001                    19102019000000000000001                                        0100004     00000000000
7560001300360B   100005586829606RUA MARECHAL FLORIANO         01378               CENTRO         GOVERNADOR VALADARES35010141MG191020190000000000000010000000000000000000000000000000000000000000000000000000000000000055868296060000000        
7560001300361A0000007560407100000931260019 AILTON BEIRAO DA ROCHA        049785946         0919102019BRL000000000000000000000000000001                    19102019000000000000001                                        0100004     00000000000
7560001300362B   100004978594677RUA JOSE T GONCALVES          00471               UNIVERSITARIO  GOVERNADOR VALADARES35022080MG191020190000000000000010000000000000000000000000000000000000000000000000000000000000000049785946770000000        
7560001300363A0000007560407100000930970012 MAURO SERGIO FERREIRA LIMA    991245306         0219102019BRL000000000000000000000000000001                    19102019000000000000001                                        0100004     00000000000
7560001300364B   100099124530697AVENIDA RIO DOCE              00998               SAO PEDRO      GOVERNADOR VALADARES35010000MG191020190000000000000010000000000000000000000000000000000000000000000000000000000000000991245306970000000        
7560001300365A0000007560407100000932320015 VINICIUS VANDERLEY PEREIRA LOP124219166         0519102019BRL000000000000000000000000000001                    19102019000000000000001                                        0100004     00000000000
7560001300366B   100012421916666AVENIDA CANTIDIO FERREIRA DA S00431               JARDIM ATALAIA GOVERNADOR VALADARES35042010MG191020190000000000000010000000000000000000000000000000000000000000000000000000000000000124219166660000000        
7560001300367A0000007560407100000931300010 FABIO FELIX DOS SANTOS        051156496         0019102019BRL000000000000000000000000000001                    19102019000000000000001                                        0100004     00000000000
7560001300368B   100005115649616RUA DO PLANALTO               00079               ALTINOPOLIS    GOVERNADOR VALADARES35053520MG191020190000000000000010000000000000000000000000000000000000000000000000000000000000000051156496160000000        
7560001300369A0000007560407100000934130019 YAGO FELLIPE RINIERE GEBER BEZ079224486         0919102019BRL000000000000000000000000000001                    19102019000000000000001                                        0100004     00000000000
7560001300370B   100007922448694RUA CAMPOS SALES              01695               SANTA RITA     GOVERNADOR VALADARES35040090MG191020190000000000000010000000000000000000000000000000000000000000000000000000000000000079224486940000000        
7560001300371A0000007560407100009916401713 EDVALDO MOREIRA DE OLIVEIRA   039810986         0319102019BRL000000000000000000000000000001                    19102019000000000000001                                        0100004     00000000000
7560001300372B   100003981098692RUA ESMERALDAS                00358               VILA RICA      GOVERNADOR VALADARES35045100MG191020190000000000000010000000000000000000000000000000000000000000000000000000000000000039810986920000000        
7560001300373A0000007560407100000930990013 RAFAEL MAGALHAES DE MELO      067586536         0319102019BRL000000000000000000000000000001                    19102019000000000000001                                        0100004     00000000000
7560001300374B   100006758653609RUA TRINTA E UM               00342               JARDIM ATALAIA GOVERNADOR VALADARES35042640MG191020190000000000000010000000000000000000000000000000000000000000000000000000000000000067586536090000000        
7560001300375A0000007560407100000930760018 BRUNO AREDES MACHADO          130476426         0819102019BRL000000000000000000000000000001                    19102019000000000000001                                        0100004     00000000000
7560001300376B   100013047642656RUA DOS ESTUDANTES            00078CS A           VILA BRETAS    GOVERNADOR VALADARES35030395MG191020190000000000000010000000000000000000000000000000000000000000000000000000000000000130476426560000000        
7560001300377A0000007560407100000930770013 ANDRE DOS SANTOS SILVA        063104086         0319102019BRL000000000000000000000000000001                    19102019000000000000001                                        0100004     00000000000
7560001300378B   100006310408623RUA A                         00231CS             VITORIA        GOVERNADOR VALADARES35010000MG191020190000000000000010000000000000000000000000000000000000000000000000000000000000000063104086230000000        
7560001300379A0000007560407100000930550013 MARCELO ARTUR DE PAULA        097194296         0319102019BRL000000000000000000000000000001                    19102019000000000000001                                        0100004     00000000000
7560001300380B   100009719429607AVENIDA COQUEIRAL             00740               TURMALINA      GOVERNADOR VALADARES35052890MG191020190000000000000010000000000000000000000000000000000000000000000000000000000000000097194296070000000        
7560001300381A0000007560407100000931420016 WAGNER AIRES ROSA             064547336         0619102019BRL000000000000000000000000000001                    19102019000000000000001                                        0100004     00000000000
7560001300382B   100006454733670RUA DANIEL MATIAS             00054               CARAVELAS      GOVERNADOR VALADARES35039070MG191020190000000000000010000000000000000000000000000000000000000000000000000000000000000064547336700000000        
7560001300383A0000007560407100000930950011 MARLYN RANGEL GONCALVES DE SOU095698856         0119102019BRL000000000000000000000000000001                    19102019000000000000001                                        0100004     00000000000
7560001300384B   100009569885637RUA ENGENHEIRO FELIPE MOREIRA 00674               NOVA VILA BRETAGOVERNADOR VALADARES35051170MG191020190000000000000010000000000000000000000000000000000000000000000000000000000000000095698856370000000        
7560001300385A0000007560407100000931350018 LUCAS PEREIRA XAVIER          133515036         0819102019BRL000000000000000000000000000001                    19102019000000000000001                                        0100004     00000000000
7560001300386B   100013351503660RUA HORTENSIA                 00209CS             TURMALINA      GOVERNADOR VALADARES35052807MG191020190000000000000010000000000000000000000000000000000000000000000000000000000000000133515036600000000        
7560001300387A0000007560407100000932270018 THIAGO ALMEIDA PEDRINI        082154756         0819102019BRL000000000000000000000000000001                    19102019000000000000001                                        0100004     00000000000
7560001300388B   100008215475698RUA MAR DE ESPANHA            00098               SANTA HELENA   GOVERNADOR VALADARES35059310MG191020190000000000000010000000000000000000000000000000000000000000000000000000000000000082154756980000000        
7560001300389A0000007560407100000932260012 MARCOS FABIO BARBOSA DA SILVA 003375766         0219102019BRL000000000000000000000000000001                    19102019000000000000001                                        0100004     00000000000
7560001300390B   100000337576661RUA JOAO ROSA                 00623CASA           SANTA RITA     GOVERNADOR VALADARES35040290MG191020190000000000000010000000000000000000000000000000000000000000000000000000000000000003375766610000000        
7560001300391A0000007560407100000933650019 GILBERTO DA SILVEIRA SILVA    105356196         0919102019BRL000000000000000000000000000001                    19102019000000000000001                                        0100004     00000000000
7560001300392B   100010535619626RUA CARIJOS                   00081CX A           VILA BRETAS    GOVERNADOR VALADARES35051090MG191020190000000000000010000000000000000000000000000000000000000000000000000000000000000105356196260000000        
7560001300393A0000007560407100000933660014 DAVID DENNER TEIXEIRA         065731976         0419102019BRL000000000000000000000000000001                    19102019000000000000001                                        0100004     00000000000
7560001300394B   100006573197674RUA C                         00010CX A           VILA MARIQUITA GOVERNADOR VALADARES35024030MG191020190000000000000010000000000000000000000000000000000000000000000000000000000000000065731976740000000        
7560001300395A0000007560407100000936520019 LUCIANO PEREIRA DE ARAUJO     098497156         0919102019BRL000000000000000000000000000001                    19102019000000000000001                                        0100004     00000000000
7560001300396B   100009849715642RUA INCONFIDENCIA             00242CS B           VILA RICA      GOVERNADOR VALADARES35045220MG191020190000000000000010000000000000000000000000000000000000000000000000000000000000000098497156420000000        
7560001300397A0000007560407100000940520010 FILIPE AUGUSTO PIRES LOUZADA  076802646         0019102019BRL000000000000000000000000000001                    19102019000000000000001                                        0100004     00000000000
7560001300398B   100007680264660RUA DOUTOR JOAO FERNANDES LEAO00068AP 202         NOVA V BRETAS  GOVERNADOR VALADARES35052754MG191020190000000000000010000000000000000000000000000000000000000000000000000000000000000076802646600000000        
7560001300399A0000007560407100000932760015 ALEXANDRE MAGNO PARDIM DE SOUZ111357426         0519102019BRL000000000000000000000000000001                    19102019000000000000001                                        0100004     00000000000
7560001300400B   100011135742677RUA SUCUPIRA                  00178               JARDIM IPE     GOVERNADOR VALADARES35043570MG191020190000000000000010000000000000000000000000000000000000000000000000000000000000000111357426770000000        
7560001300401A0000007560407100000933130015 JACKELINE GONCALVES DE FREITAS066850886         0519102019BRL000000000000000000000000000001                    19102019000000000000001                                        0100004     00000000000
7560001300402B   100006685088680RUA GUIANA                    00435CS             JARDIM PEROLA  GOVERNADOR VALADARES35051290MG191020190000000000000010000000000000000000000000000000000000000000000000000000000000000066850886800000000        
7560001300403A0000007560407100000940490013 EDSON MATOS DOS SANTOS PEREIRA915052592         0319102019BRL000000000000000000000000000001                    19102019000000000000001                                        0100004     00000000000
7560001300404B   100091505259215IMACULADA CONCEICAO           00037               MAE DE DEUS    GOVERNADOR VALADARES35052037MG191020190000000000000010000000000000000000000000000000000000000000000000000000000000000915052592150000000        
7560001300405A0000007560407100000940540010 PAULO JUNIO ROCHA GOMES       129229536         0019102019BRL000000000000000000000000000001                    19102019000000000000001                                        0100004     00000000000
7560001300406B   100012922953688RUA DAS ACACIAS               00190CS             ALTINOPOLIS    GOVERNADOR VALADARES35053000MG191020190000000000000010000000000000000000000000000000000000000000000000000000000000000129229536880000000        
7560001300407A0000007560407100009916400563 NILTON JHONES SOARES DOS SANTO114350506         0319102019BRL000000000000000000000000000001                    19102019000000000000001                                        0100004     00000000000
7560001300408B   100011435050690RUA FRANCISCO CRUZ            00370CS A           VILA ISA       GOVERNADOR VALADARES35044120MG191020190000000000000010000000000000000000000000000000000000000000000000000000000000000114350506900000000        
7560001300409A0000007560407100009916401292 AUGUSTO CESAR LISBOA          654603166         0219102019BRL000000000000000000000000000001                    19102019000000000000001                                        0100004     00000000000
7560001300410B   100065460316634RUA IBITURUNA                 00168               SAO PEDRO      GOVERNADOR VALADARES35022030MG191020190000000000000010000000000000000000000000000000000000000000000000000000000000000654603166340000000        
7560001300411A0000007560407100000297361732 LARISSA OLIVEIRA MACHADO      141235136         0219102019BRL000000000000000000000000000001                    19102019000000000000001                                        0100004     00000000000
7560001300412B   100014123513670RUA PROFESSORA CONCEICAO TEODO00254CS H           SAO PAULO      GOVERNADOR VALADARES35030510MG191020190000000000000010000000000000000000000000000000000000000000000000000000000000000141235136700000000        
